:020000040800F2
:1000000000000120AD2700080D2700080F27000879
:10001000112700081327000815270008000000001A
:10002000000000000000000000000000172700088A
:1000300019270008000000001B2700081D270008E2
:10004000FD270008FD270008FD270008FD27000800
:10005000FD270008FD270008FD270008FD270008F0
:10006000FD270008FD270008FD270008FD270008E0
:10007000FD270008FD270008FD270008FD270008D0
:10008000FD270008FD270008FD270008FD270008C0
:10009000FD270008FD270008FD270008FD270008B0
:1000A000FD2700082D270008FD270008FD27000870
:1000B00039270008FD270008FD270008FD27000854
:1000C000FD270008FD270008FD270008FD27000880
:1000D000FD270008FD270008FD270008FD27000870
:1000E000FD270008FD270008FD270008FD27000860
:1000F000FD270008FD270008FD270008FD27000850
:10010000FD2700080000000000000000FD27000897
:10011000FD270008FD270008FD270008FD2700082F
:10012000FD270008FD270008FD270008FD2700081F
:10013000FD270008FD270008000000000000000067
:10014000FD270008FD270008FD270008000000002B
:10015000000000000000000000000000000000009F
:10016000FD270008FD270008FD270008FD270008DF
:10017000FD270008FD270008FD270008FD270008CF
:10018000FD270008FD270008000000000000000017
:04019000FD2700083F
:1001A00010B5054C237833B9044B13B10448AFF3B1
:1001B00000800123237010BD7400002000000000A7
:1001C000B030000808B5034B1BB103490348AFF337
:1001D000008008BD0000000078000020B03000085A
:1001E00001F0FF01102A2BDB10F0070F08D010F8E8
:1001F000013B013A8B422DD010F0070F42B3F6D1EC
:10020000F0B441EA012141EA014122F007047FF004
:1002100000070023F0E80256083C85EA010586EA5B
:10022000010685FA47F5A3FA87F586FA47F6A5FA97
:1002300087F68EB9EED1F0BC01F0FF0102F00702A3
:1002400032B110F8013B013A83EA010313B1F8D14E
:100250000020704701387047002D06BF354603382F
:10026000073815F0010F07D1013015F4807F02BF68
:10027000013015F4C03F0130F0BC0138704700BFB9
:1002800081F0004102E000BF83F0004330B54FEA47
:1002900041044FEA430594EA050F08BF90EA020FB4
:1002A0001FBF54EA000C55EA020C7FEA645C7FEA47
:1002B000655C00F0E2804FEA5454D4EB5555B8BF6A
:1002C0006D420CDD2C4480EA020281EA030382EADB
:1002D000000083EA010180EA020281EA0303362D6D
:1002E00088BF30BD11F0004F4FEA01314FF4801C40
:1002F0004CEA113102D0404261EB410113F0004F52
:100300004FEA03334CEA133302D0524263EB430308
:1003100094EA050F00F0A780A4F10104D5F1200EA6
:100320000DDB02FA0EFC22FA05F2801841F1000101
:1003300003FA0EF2801843FA05F359410EE0A5F1D5
:1003400020050EF1200E012A03FA0EFC28BF4CF006
:10035000020C43FA05F3C01851EBE37101F00045BC
:1003600007D54FF0000EDCF1000C7EEB00006EEBC9
:100370000101B1F5801F1BD3B1F5001F0CD3490853
:100380005FEA30004FEA3C0C04F101044FEA4452AA
:1003900012F5800F80F09A80BCF1004F08BF5FEA31
:1003A000500C50F1000041EB045141EA050130BD11
:1003B0005FEA4C0C404141EB010111F4801FA4F1B4
:1003C0000104E9D191F0000F04BF01460020B1FA09
:1003D00081F308BF2033A3F10B03B3F120020CDA41
:1003E0000C3208DD02F1140CC2F10C0201FA0CF01F
:1003F00021FA02F10CE002F11402D8BFC2F1200C84
:1004000001FA02F120FA0CFCDCBF41EA0C01904039
:10041000E41AA2BF01EB0451294330BD6FEA040482
:100420001F3C1CDA0C340EDC04F11404C4F120026D
:1004300020FA04F001FA02F340EA030021FA04F37F
:1004400045EA030130BDC4F10C04C4F1200220FAD6
:1004500002F001FA04F340EA0300294630BD21FA14
:1004600004F0294630BD94F0000F83F4801306BFDA
:1004700081F480110134013D4EE77FEA645C18BFCE
:100480007FEA655C29D094EA050F08BF90EA020F65
:1004900005D054EA000C04BF1946104630BD91EA5D
:1004A000030F1EBF0021002030BD5FEA545C05D160
:1004B0004000494128BF41F0004130BD14F580049F
:1004C0003CBF01F5801130BD01F0004545F0FE4113
:1004D00041F470014FF0000030BD7FEA645C1ABF48
:1004E000194610467FEA655C1CBF0B46024650EA7F
:1004F000013406BF52EA033591EA030F41F40021AB
:1005000030BD00BF90F0000F04BF0021704730B530
:100510004FF4806404F132044FF000054FF0000105
:1005200050E700BF90F0000F04BF0021704730B5C6
:100530004FF4806404F1320410F0004548BF40429B
:100540004FF000013EE700BF42004FEAE2014FEAF0
:1005500031014FEA02701FBF12F07F4393F07F4FCB
:1005600081F06051704792F0000F14BF93F07F4FFD
:10057000704730B54FF4607401F0004521F0004140
:1005800020E700BF50EA010208BF704730B54FF0C6
:1005900000050AE050EA010208BF704730B511F0CB
:1005A000004502D5404261EB41014FF4806404F103
:1005B00032045FEA915C3FF4DCAE4FF003025FEA85
:1005C000DC0C18BF03325FEADC0C18BF033202EB0D
:1005D000DC02C2F1200300FA03FC20FA02F001FA67
:1005E00003FE40EA0E0021FA02F11444C1E600BF06
:1005F00070B54FF0FF0C4CF4E06C1CEA11541DBFB9
:100600001CEA135594EA0C0F95EA0C0F00F0DEF883
:100610002C4481EA030621EA4C5123EA4C5350EA68
:10062000013518BF52EA033541F4801143F48013B9
:1006300038D0A0FB02CE4FF00005E1FB02E506F04A
:100640000042E0FB03E54FF00006E1FB03569CF09F
:10065000000F18BF4EF0010EA4F1FF04B6F5007FA5
:1006600064F5407404D25FEA4E0E6D4146EB060617
:1006700042EAC62141EA55514FEAC52040EA5E50A0
:100680004FEACE2EB4F1FD0C88BFBCF5E06F1ED84A
:10069000BEF1004F08BF5FEA500E50F1000041EB81
:1006A000045170BD06F0004646EA010140EA02002E
:1006B00081EA0301B4EB5C04C2BFD4EB0C0541EA50
:1006C000045170BD41F480114FF0000E013C00F365
:1006D000AB8014F1360FDEBF002001F0004170BD89
:1006E000C4F10004203C35DA0C341BDC04F11404A2
:1006F000C4F1200500FA05F320FA04F001FA05F22E
:1007000040EA020001F0004221F0004110EBD370FA
:1007100021FA04F642EB06015EEA430E08BF20EA26
:10072000D37070BDC4F10C04C4F1200500FA04F3C9
:1007300020FA05F001FA04F240EA020001F000415B
:1007400010EBD37041F100015EEA430E08BF20EACE
:10075000D37070BDC4F1200500FA05F24EEA020E16
:1007600020FA04F301FA05F243EA020321FA04F045
:1007700001F0004121FA04F220EA020000EBD370FC
:100780005EEA430E08BF20EAD37070BD94F0000FFC
:100790000FD101F00046400041EB010111F4801F30
:1007A00008BF013CF7D041EA060195F0000F18BFE1
:1007B000704703F00046520043EB030313F4801F1D
:1007C00008BF013DF7D043EA0603704794EA0C0FD7
:1007D0000CEA135518BF95EA0C0F0CD050EA4106ED
:1007E00018BF52EA4306D1D181EA030101F000416A
:1007F0004FF0000070BD50EA410606BF1046194692
:1008000052EA430619D094EA0C0F02D150EA01369D
:1008100013D195EA0C0F05D152EA03361CBF1046DE
:1008200019460AD181EA030101F0004141F0FE417D
:1008300041F470014FF0000070BD41F0FE4141F401
:10084000780170BD70B54FF0FF0C4CF4E06C1CEA01
:1008500011541DBF1CEA135594EA0C0F95EA0C0FB6
:1008600000F0A7F8A4EB050481EA030E52EA033571
:100870004FEA013100F088804FEA03334FF0805592
:1008800045EA131343EA12634FEA022245EA1115BF
:1008900045EA10654FEA00260EF000419D4208BF70
:1008A000964244F1FD0404F5407402D25B084FEA1D
:1008B0003202B61A65EB03055B084FEA32024FF4C9
:1008C00080104FF4002CB6EB020E75EB030E22BF26
:1008D000B61A754640EA0C005B084FEA3202B6EBE6
:1008E000020E75EB030E22BFB61A754640EA5C0095
:1008F0005B084FEA3202B6EB020E75EB030E22BF25
:10090000B61A754640EA9C005B084FEA3202B6EB25
:10091000020E75EB030E22BFB61A754640EADC00E4
:1009200055EA060E18D04FEA051545EA16754FEA46
:1009300006164FEAC30343EA52734FEAC2025FEA64
:100940001C1CC0D111F4801F0BD141EA00014FF0F3
:1009500000004FF0004CB6E711F4801F04BF0143C4
:100960000020B4F1FD0C88BFBCF5E06F3FF6AFAEE0
:10097000B5EB030C04BFB6EB020C5FEA500C50F170
:10098000000041EB045170BD0EF0004E4EEA1131F3
:1009900014EB5C04C2BFD4EB0C0541EA045170BDFA
:1009A00041F480114FF0000E013C90E645EA060E3E
:1009B0008DE60CEA135594EA0C0F08BF95EA0C0F6C
:1009C0003FF43BAF94EA0C0F0AD150EA01347FF4B4
:1009D00034AF95EA0C0F7FF425AF104619462CE78B
:1009E00095EA0C0F06D152EA03353FF4FDAE1046EE
:1009F000194622E750EA410618BF52EA43067FF43F
:100A0000C5AE50EA41047FF40DAF52EA43057FF4CE
:100A1000EBAE12E74FEA410212F5001215D211D5E2
:100A20006FF47873B3EB625212D94FEAC12343F0EB
:100A3000004343EA505311F0004F23FA02F018BF6D
:100A4000404270474FF00000704750EA013005D136
:100A500011F0004008BF6FF0004070474FF00000F9
:100A6000704700BF38B50E4A0E4B054618784FF454
:100A70007A73B3FBF0F31068B0FBF3F000F08CF87E
:100A8000044658B90F2D09D8024629464FF0FF30C9
:100A900000F042F8044B20461D6038BD012038BDEF
:100AA0000C0000200000002004000020074A08B5C8
:100AB000136843F010031360032000F01BF80020BC
:100AC000FFF7D0FF01F066FD002008BD00200240C6
:100AD000034A044B11681B780B441360704700BF36
:100AE0009C00002000000020014B1868704700BFE8
:100AF0009C000020074AD36823F4E0631B041B0C0E
:100B000043F0BF63000243F4003300F4E0600343AA
:100B1000D360704700ED00E0174B30B5DC68C4F3DC
:100B20000224C4F10703251D042B28BF0423062D2E
:100B30004FF0010505FA03F303F1FF338CBF033CCB
:100B400000241940A14005FA04F4013C2240002889
:100B500042EA01024FEA0212AFBF00F1604000F02A
:100B60000F00064BD2B2A5BF00F56140D2B21A54B5
:100B700080F8002330BD00BF00ED00E014ED00E080
:100B80004209012300F01F0003FA00F0014B43F873
:100B90002200704700E100E00138B0F1807F0AD206
:100BA000064B074A5860F02182F8231000200722E4
:100BB00098601A6070470120704700BF10E000E0A5
:100BC00000ED00E0044B1A6804280CBF42F0040258
:100BD00022F004021A60704710E000E0704708B588
:100BE000FFF7FCFF08BD00002DE9F74FD1F80080AA
:100BF000DFF89091614A002338FA03F402D103B080
:100C0000BDE8F08F4FF0010E0EFA03FE18EA0E0653
:100C100000F0A6804C6824F01007022F16D14FEA8E
:100C2000D30A00EB8A0A03F0070BDAF820504FEAE8
:100C30008B0B4FF00F0C0CFA0BFC25EA0C0C0D691A
:100C400005FA0BF545EA0C05CAF820504FEA430AAD
:100C50000325D0F800B005FA0AF5ED4304F0030CC3
:100C60000BEA050B0CFA0AFC013F4CEA0B0C012FB6
:100C7000C0F800C011D8876807EA050BCF6807FAEB
:100C80000AFC4CEA0B078760476827EA0E0EC4F39C
:100C900000179F4047EA0E074760C7683D408F68CE
:100CA00007FA0AF73D43C560E50059D5D9F8185051
:100CB00045F00105C9F81850D9F8185023F003077A
:100CC00007F1804705F0010507F58037019503F02E
:100CD000030C019DBD684FEA8C0C4FF00F0E0EFA0D
:100CE0000CFEB0F1904F25EA0E0E3BD0244DA842E9
:100CF0003AD005F58065A84238D005F58065A84250
:100D000036D005F58065A84234D005F58065A84247
:100D100032D005F58065A84214BF0725062505FADF
:100D20000CF545EA0E05BD601568F74314F4803FE5
:100D30000CBF3D4035431560556814F4003F0CBFAF
:100D40003D4035435560956814F4801F0CBF3D400D
:100D500035439560D568A40254BF3D403543D56006
:100D6000013349E70025DAE70125D8E70225D6E770
:100D70000325D4E70425D2E70525D0E70004014088
:100D800000040048001002400369194214BF01200A
:100D9000002070470AB1816170478162704700008E
:100DA0002DE9F347054618B9012002B0BDE8F087E8
:100DB0000368DF0711D42B689E0700F188802B6839
:100DC0001C0700F1FC802B68580700F14581AA69D7
:100DD000002A40F0DC810020E7E7BD4C636803F0A7
:100DE0000C03042B0AD0636803F00C03082B19D101
:100DF000636803F4C033B3F5803F13D14FF400337D
:100E000093FAA3F2216893FAA3F3B3FA83F303F0FE
:100E10001F03012202FA03F30B42CCD06B68002BB4
:100E2000C9D1C1E76B68B3F5803F1ED1236843F495
:100E300080332360FFF758FE4FF4003680460127C9
:100E400096FAA6F3226896FAA6F3B3FA83F303F0B0
:100E50001F0307FA03F31342ADD1FFF745FEA0EBE2
:100E600008006428ECD903209FE70BBB236823F418
:100E700080332360236823F480232360FFF734FE4C
:100E80004FF400368046012796FAA6F3226896FAB8
:100E9000A6F3B3FA83F303F01F0307FA03F3134235
:100EA00089D0FFF721FEA0EB08006428ECD9DAE72F
:100EB000B3F5A02F236803D143F480232360B5E763
:100EC00023F480332360236823F48023B1E7804C2C
:100ED000636813F00C0F0AD0636803F00C03082B4F
:100EE00025D1636803F4C033B3F5004F1FD102234B
:100EF00093FAA3F2216893FAA3F3B3FA83F303F00E
:100F00001F03012202FA03F30B4203D0EB68934262
:100F10007FF44AAF2168F82393FAA3F3B3FA83F27C
:100F20002B69934021F0F8021343236047E7EA68F6
:100F300001260AB396FAA6F3B3FA83F303F18453B6
:100F400003F584139B0002271E60FFF7CDFD80464A
:100F500097FAA7F3226897FAA7F3B3FA83F303F09B
:100F60001F0306FA03F31342D4D1FFF7BDFDA0EB34
:100F700008000228ECD976E796FAA6F3B3FA83F3D1
:100F800003F1845303F584139B0002271A60FFF7D3
:100F9000ABFD804697FAA7F3226897FAA7F3B3FA56
:100FA00083F303F01F0306FA03F313423FF407AF82
:100FB000FFF79AFDA0EB08000228EBD953E76A6916
:100FC000434E444901241AB394FAA4F3B3FA83F3C9
:100FD0000B449B0002271C60FFF786FD804697FAB2
:100FE000A7F397FAA7F397FAA7F3726A97FAA7F30A
:100FF000B3FA83F303F01F0304FA03F313427FF4FD
:10100000E2AEFFF771FDA0EB08000228E7D92AE75E
:1010100094FAA4F3B3FA83F30B449B0002271A60FB
:10102000FFF762FD804697FAA7F397FAA7F397FABE
:10103000A7F3726A97FAA7F3B3FA83F303F01F03D7
:1010400004FA03F313423FF4BEAEFFF74DFDA0EBED
:1010500008000228E7D906E71D4CE369D90034D41B
:10106000E36943F08053E361E36903F08053019344
:10107000019B0126184F3B68DA052FD5AB68012B81
:101080003DD1236A43F001032362FFF72DFD0227C0
:101090008246B9464FF0010897FAA7F397FAA7F3EB
:1010A000002B6CD0226A99FAA9F3B3FA83F303F008
:1010B0001F0308FA03F3134258D0002E3FF487AE03
:1010C000E36923F08053E36181E60026D2E700BFA5
:1010D0000010024020819010007000403B6843F4F3
:1010E00080733B60FFF700FD80463B68DB05C5D49D
:1010F000FFF7FAFCA0EB08006428F6D9B3E63BBB87
:10110000236A23F001032362236A23F0040323628A
:10111000FFF7EAFC02278246B9464FF0010897FA2A
:10112000A7F397FAA7F373B3226A99FAA9F3B3FA6C
:1011300083F303F01F0308FA03F31342BDD0FFF754
:10114000D3FC41F28833A0EB0A009842E7D98AE643
:10115000052B236A03D143F00403236291E723F0B4
:1011600001032362236A23F004038DE7FFF7BCFC2D
:1011700041F28833A0EB0A0098428DD973E697FAC2
:10118000A7F3626A8FE797FAA7F3626ACDE7444C48
:10119000636803F00C03082B3FF406AE022A4FF0FD
:1011A000807358D193FAA3F3B3FA83F303F1845312
:1011B00003F584139B0000221A60FFF795FC4FF0A3
:1011C00000778046012697FAA7F3226897FAA7F3DB
:1011D000B3FA83F303F01F0306FA03F3134233D188
:1011E000E36A6A6A23F00F031343E36262682B6ABF
:1011F000E96922F476120B43134363604FF0807366
:1012000093FAA3F3B3FA83F303F1845303F584133E
:101210009B004FF000751E60FFF766FC0126074635
:1012200095FAA5F3226895FAA5F3B3FA83F303F0D0
:101230001F0306FA03F313427FF4CDADFFF754FC0E
:10124000C01B0228ECD90EE6FFF74EFCA0EB08000D
:101250000228B8D907E693FAA3F3B3FA83F303F1AC
:10126000845303F584139B0000221A60FFF73CFCB3
:101270004FF000750746012695FAA5F3226895FA06
:10128000A5F3B3FA83F303F01F0306FA03F3134243
:101290003FF4A1ADFFF728FCC01B0228ECD9E2E522
:1012A0000010024011494B6803F00C02082A1AD1C1
:1012B0004FF4701292FAA2F20F20B2FA82F2C96AC7
:1012C00090FAA0F0B0FA80F001F00F0103F470136F
:1012D000D340C140064A0748415C0748B0FBF1F1E2
:1012E000D05C484370470448704700BF001002407C
:1012F000C8300008D830000800127A002DE9F0410B
:101300000D46044610B90120BDE8F0814C4A13682F
:1013100003F007038B422ED32268910736D4D207FD
:101320003CD4474A136803F007039D4275D32268F3
:10133000444D12F0040F7CD1130706D56B68226967
:1013400023F4605343EAC2036B60FFF7ABFF6B68A3
:10135000F02292FAA2F2B2FA82F203F0F003D34042
:10136000394AD35CD840394B18600020FFF77AFB2C
:101370000020BDE8F081136823F007030B431360DE
:10138000136803F007039942BDD1C5E72D49A06852
:101390004B6823F0F00303434B60C0E76268294EBB
:1013A000012A27D14FF4003393FAA3F1316893FA5D
:1013B000A3F3B3FA83F303F01F0302FA03F30B4220
:1013C000A1D0736823F003031A437260FFF78CFB0C
:1013D00041F2883807467368626803F00C03B3EB88
:1013E000820F9ED0FFF780FBC01B4045F3D903203E
:1013F000BDE8F081022A0CBF4FF00073022393FA7C
:10140000A3F1306893FAA3F3B3FA83F303F01F0355
:10141000012101FA03F30342D2E7136823F0070323
:101420002B431360136803F007039D427FF46BAFF7
:101430007DE76B68E16823F4E0630B436B607BE757
:101440000020024000100240FA3000080C0000208A
:10145000014B1868704700BF0C000020084B4FF488
:10146000E0625B6892FAA2F2B2FA82F203F4E063FD
:10147000D340044AD35C044A1068D840704700BF88
:10148000001002400A3100080C000020084B4FF405
:1014900060525B6892FAA2F2B2FA82F203F46053ED
:1014A000D340044AD35C044A1068D840704700BF58
:1014B000001002400A3100080C00002003682DE9EA
:1014C000F347DF03044623D59B4DEB69DE0000F1B3
:1014D000D780EB6943F08053EB61EB6903F08053F5
:1014E0000193019B0126954F3B68D80540F1CA80C6
:1014F0002B6A13F4407340F0DA802B6A626823F49D
:10150000407313432B621EB1EB6923F08053EB61F0
:101510002068C30706D5884AA168136B23F003032C
:101520000B431363870706D5834AE168136B23F4E3
:1015300040330B431363460706D57F4A2169136B7B
:1015400023F440230B431363850606D57A4AE169E9
:10155000136B23F010030B431363810306D5764A04
:10156000616D536823F480030B435360420606D534
:10157000714A216A136B23F020030B431363430367
:1015800006D56D4A616A136B23F040030B43136366
:10159000070706D5684A6169136B23F440130B43B0
:1015A0001363C60606D5644AA169136B23F440038E
:1015B0000B431363850506D55F4A216B536823F4FB
:1015C00000030B435360010606D55B4AA16AD36A48
:1015D00023F4F8730B43D362C20506D5564AE16A79
:1015E000D36A23F478530B43D362C30406D5524A1B
:1015F000616B136B23F480730B431363870406D56D
:101600004D4A216C136B23F400730B431363C60222
:1016100006D5494AA16B136B23F080730B43136308
:10162000850206D5444AE16B136B23F000730B432C
:101630001363410206D5404A616C136B23F4806347
:101640000B431363020206D53B4AA16C136B23F4D0
:1016500000630B431363C30106D5374AE16C136B78
:1016600023F400530B43136310F000701CD0324A74
:10167000216D136B23F400430B431363002013E02D
:10168000002630E73B6843F480733B60FFF72CFA99
:1016900080463B68D9053FF52BAFFFF725FAA0EB55
:1016A00008006428F5D9032002B0BDE8F08762681D
:1016B00002F4407293423FF420AF296A4FF4803322
:1016C00021F4407093FAA3F2DFF874E0B2FA82F2E8
:1016D000724492000127176093FAA3F3B3FA83F3DD
:1016E00073449B0000221A60CA0728627FF505AF89
:1016F000FFF7FAF94FF002088246C14698FAA8F3BC
:1017000098FAA8F3A3B12A6A99FAA9F3B3FA83F372
:1017100003F01F0307FA03F313427FF4EEAEFFF763
:10172000E3F941F28833A0EB0A009842E6D9BAE720
:1017300098FAA8F36A6AE7E70010024000700040D8
:10174000008190100368DA6842F00102DA601A68DA
:1017500042F001021A60002070470368DA6822F044
:101760000102DA60196A41F21112114208D1196AB4
:1017700040F24442114202BF1A6822F001021A608C
:101780000020704770477047704703681A699107D7
:1017900010B504460FD5DA6892070CD56FF0020237
:1017A0001A619B6901229907027700F0858000F099
:1017B00069FD0023237723681A69520710D5DA6878
:1017C00050070DD56FF004021A619B69022213F4D1
:1017D000407F2277204675D000F054FD0023237708
:1017E00023681A6911070FD5DA6812070CD56FF054
:1017F00008021A61DB6904229B072277204667D022
:1018000000F040FD0023237723681A69D00610D525
:10181000DA68D1060DD56FF010021A61DB69082273
:1018200013F4407F2277204658D000F02BFD002390
:10183000237723681A69D20708D5DA68D00705D557
:101840006FF001021A61204600F07AFD23681A69E0
:10185000110608D5DA68120605D56FF080021A6104
:10186000204600F0C2FA23681A69D00508D5DA6864
:10187000110605D56FF480721A61204600F0B6FAA1
:1018800023681A69520608D5DA68500605D56FF044
:1018900040021A612046FFF777FF23681A69910614
:1018A00022D5DA6892061FD56FF0200220461A6111
:1018B000BDE8104000F098BAFFF764FF2046FFF73C
:1018C00062FF76E7FFF75EFF2046FFF75CFF85E7E4
:1018D000FFF758FF2046FFF756FF93E7FFF752FF49
:1018E0002046FFF750FFA2E710BD0000324A036810
:1018F000904212D0B0F1804F0FD0A2F594329042B6
:101900000BD002F58062904207D002F596329042E9
:1019100003D002F5E052904215D14A6823F07003DB
:101920001343254A90421DD0B0F1804F1AD0A2F542
:101930009432904216D002F58062904212D002F5A5
:10194000963290420ED01D4A90420BD002F5806232
:10195000904207D002F58062904203D002F5006207
:10196000904203D1CA6823F4407313434A6923F0B9
:101970008003134303608B68C3620B6883620E4B62
:10198000984213D003F5006398420FD003F54063EB
:1019900098420BD003F58063984207D003F580632B
:1019A000984203D003F50063984201D10B690363A9
:1019B00001234361704700BF002C014000400140FB
:1019C00010B50446A0B190F83D3003F0FF021BB9FA
:1019D00080F83C2000F024FE022384F83D3020688B
:1019E000211DFFF783FF012384F83D30002010BD47
:1019F000012010BD10B50446A0B190F83D3003F0B1
:101A0000FF021BB980F83C2000F028FE022384F876
:101A10003D302068211DFFF769FF012384F83D3028
:101A2000002010BD012010BD70B5046A184E24F0CE
:101A300001040462B0428469056A16D0B0F1804F97
:101A400013D0A6F59436B0420FD006F58066B042AA
:101A50000BD006F59636B04207D006F54066B04288
:101A600003D006F58056B0420FD124F00304224380
:101A70001B0122F0F002DBB225F00A0501F00A0199
:101A80001A4329438261016270BD44F00102EFE70D
:101A9000002C0140F8B590F83C30012B04460D466F
:101AA0004FF0020019D0012384F83C3084F83D0047
:101AB000A2B9CB68206806C9FFF7B6FF2368A968FA
:101AC0009A6922F00C029A619A690A439A61012389
:101AD000002084F83D3084F83C00F8BD042A8E686C
:101AE0002368E86882C91FD11A6A22F010021A62BC
:101AF0009A691D6A22F4407242EA0722000380B20A
:101B000022F470420901024301F0A00125F0A00077
:101B100001439A6119629A6922F440629A619A6952
:101B200042EA06269E61D2E7082A1A6A1CD122F4EC
:101B300080721A62DA691D6A22F003023A430001D8
:101B4000C0B222F0F0020902024301F4206125F440
:101B500020600143DA611962DA6922F00C02DA616D
:101B6000DA691643DE61B2E722F480521A62DA695A
:101B70001D6A22F4407242EA0722000322F47042F6
:101B800080B20903104301F4204125F4204211439F
:101B9000D8611962DA6922F44062DA61DA6942EAEC
:101BA0000626DFE710B584680A4324F47F4442EA3E
:101BB00003232343836010BD90F83C30012B70B5A4
:101BC00004464FF002001AD084F83D00206801233B
:101BD00084F83C308268524B134083600B68402B82
:101BE00075D018D8102B00F08F8009D8002B00F08A
:101BF00085800123002084F83D3084F83C0070BDCE
:101C0000202B00F08780302BF3D1836823F0700302
:101C100043F0370333E0702B33D01BD8502B3FD029
:101C2000602BE6D14D68CE68016A21F01001016297
:101C30008269036A22F4704223F0A00343EA051389
:101C400042EA063282610362836823F0700343F044
:101C5000670314E0B3F5805F0CD0B3F5005FC8D123
:101C6000CB684A688968FFF79DFF2268936843F450
:101C7000804313E0836823F4803323F007038360F9
:101C8000B7E7CB684A688968FFF78CFF22689368DA
:101C900023F4803323F0770343F077039360A8E7BE
:101CA0004A68CE68016A056A25F001050562836904
:101CB00021F00A0123F0F00343EA06130A4383618B
:101CC0000262836823F0700343F05703D7E74A6842
:101CD000CE68016A056A25F001050562836921F075
:101CE0000A0123F0F00343EA06130A438361026208
:101CF000836823F0700343F04703C0E7836823F051
:101D0000700343F00703BAE7836823F0700343F0DE
:101D10001703B4E7836823F0700343F02703AEE7AB
:101D20008800FEFF036A10B501248C4023EA0403F7
:101D30000362036A8A401A43026210BD10B504466A
:101D40000C290DD8DFE801F0070C0C0C170C0C0C5B
:101D50001C0C0C0C21000268D36843F00203D36012
:101D600020680122FFF7DEFF2268136843F00103B9
:101D70001360002010BD0268D36843F00403EEE74F
:101D80000268D36843F00803E9E70268D36843F0C8
:101D90001003E4E790F83C30012B30B520D0026806
:101DA000104D53689468AA4207D005F50065AA4211
:101DB00003D005F5E055AA4203D14D6823F4700322
:101DC0002B430D68896823F070032B4324F08004B3
:101DD000536021430023916080F83C30184630BDA9
:101DE000022030BD002C0140704770477047000052
:101DF00038B5044605682169A268C36928680A43A2
:101E000061690A4377491A4301400A432A606A68B4
:101E1000E168206A22F440520A436A60A968A26914
:101E200021F4306102430A43AA606F4A954212D1FD
:101E300002F558426D49126B02F00302B3F5004FF0
:101E40008A5C66D0082A19D8DFE802F0C2929E1890
:101E5000A9181818AC00664A954224D102F5E6325A
:101E6000126B02F44032B2F5803F00F0A08007D838
:101E7000002A00F0AA80B3F5004F76D0012038BDCB
:101E8000B2F5003F00F09980B2F5403FF3D1B3F5D1
:101E9000004F79D16068430803F5740303F51053CC
:101EA000B3FBF0F354E0534A95420ED102F5E4320D
:101EB000126B02F44022B2F5802F78D0D8D9B2F557
:101EC000002F7AD0B2F5402FE0E74B4A95420ED171
:101ED00002F5E232126B02F44012B2F5801F66D0B6
:101EE000C6D9B2F5001F68D0B2F5401FCEE7434A0D
:101EF0009542C0D102F5E032126B02F44002B2F515
:101F0000800F54D0B4D9B2F5000F56D0B2F5400FBF
:101F1000BCE7082A29D801A353F822F0411F000882
:101F2000651F0008951E00086B1F0008B51F0008FC
:101F30006B1F00086B1F00086B1F0008C11F000803
:101F4000FFF78CFA61684A0802EB4003B3FBF1F338
:101F50009BB2002023F00F022168C3F34203134316
:101F6000CB6038BDFFF792FAECE701200023F1E7E0
:101F7000FFF78CFA636800EB5300B0FBF3F01A4BE9
:101F800080B2D860002038BD6268530803F5F403BE
:101F900003F59053B3FBF2F39BB2EB60F2E7FFF76C
:101FA00081F917E06268530803F50043F2E7B3F5DF
:101FB000004FF4D1FFF776F9C4E7B3F5004FF1D144
:101FC0006068430803F580336AE7B3F5004FB7D084
:101FD000FFF744FA636800EB5300B0FBF3F080B204
:101FE000E860CFE7F369FFEF00380140E830000810
:101FF0000044004000480040004C004000500040B9
:10200000436ADA0710B506D50168846A4A6822F483
:10201000003222434A609C0706D50168C46A4A68B8
:1020200022F4803222434A60590706D50168046BC6
:102030004A6822F4802222434A601A0706D50168C2
:10204000446B4A6822F4004222434A60DC0606D50B
:102050000168846B8A6822F4805222438A60990660
:1020600006D50168C46B8A6822F4005222438A6054
:102070005A060FD50168046C4A6822F48012224384
:10208000B4F5801F4A6005D14A68446C22F4C0024E
:1020900022434A601B0606D50268816C536823F40C
:1020A00000230B43536010BD2DE9F041069D04460B
:1020B0000F46164698462168CA6937EA02030CBFE4
:1020C00001220022B24202D00020BDE8F0816B1C48
:1020D000F2D09DB923681A6822F4D0721A609A6807
:1020E00022F001029A60202384F8693084F86A3073
:1020F000002384F868300320BDE8F081FEF7F4FC8B
:10210000A0EB08008542D6D2E4E72DE9F3411F4653
:1021100090F86930202B04460D4690464CD100299A
:1021200048D0002A46D090F86830012B44D00123D3
:1021300080F868300023C366212380F86930FEF7F9
:10214000D3FCA4F850800646A4F85280B4F852207C
:1021500092B262B90097334640212046FFF7A4FFB0
:1021600098B9202384F8693084F868000EE0B4F848
:1021700052300097013B9BB2A4F852300022334604
:1021800080212046FFF790FF18B1032002B0BDE880
:10219000F081A3682268B3F5805F07D123692BB96A
:1021A00035F8023BC3F308031385CFE72B7813857B
:1021B0000135CBE70120E9E70220E7E773B50446E4
:1021C0000026C666FEF790FC23681B681A070546C2
:1021D00017D423681B685B070AD56FF07E43009312
:1021E00000222B464FF480012046FFF75DFFA0B987
:1021F0002023002084F8693084F8680084F86A306D
:102200000CE06FF07E430093324603464FF400111A
:102210002046FFF749FF0028DBD0032002B070BD45
:1022200010B5044660B390F8693003F0FF021BB9A3
:1022300080F8682000F046FA2268242384F8693088
:10224000136823F0010313602046FFF7D1FD012836
:1022500016D0636A13B12046FFF7D2FE23685A688E
:1022600022F490425A609A6822F02A029A601A6810
:1022700042F0010220461A60BDE81040FFF79EBF01
:10228000012010BDF0B50368B3F1804F89B004465A
:1022900048D1017F01293CD0237F022B05D10821A1
:1022A0002148FEF771FD012839D02368586AFEF7EE
:1022B00039F91E4B0022FEF7C5FA0F460646FEF717
:1022C000A9FB14220546002103A800F0BDFA284608
:1022D000FEF728F902460B4630463946FDF7D4FF93
:1022E0000022134B247FFEF783F9FEF793FB2B4666
:1022F000009022460F4903A800F0AEFA4FF6FF7394
:10230000142203A90C48FFF700FF0C48FFF71AFA44
:1023100008E04FF09040FEF737FD0128BCD123685C
:1023200000225A6209B0F0BD0004004800004D4090
:1023300000005940EC30000820010020A0000020DF
:102340000268204B9A4210B53AD11F4C236843F2E1
:10235000B06293421CD11D48FFF7FFF902214FF0F4
:102360009040FEF711FD50B9012202214FF090403C
:10237000FEF710FD1548BDE81040FFF7E3B9002255
:10238000226002214FF09040BDE81040FEF702BDF0
:1023900041F65832934211D10C48FFF7DEF9802103
:1023A0004FF09040FEF7F0FC10B901228021DDE7EC
:1023B00023680133236000228021E3E70133236097
:1023C00010BD00BF002C014008000020A00000202C
:1023D00010B5A6B0022306930123099310230A9394
:1023E00006A800230C93FEF7DBFC014600B1FEE7D4
:1023F0000F23029003900490059001A80193FEF72B
:102400007DFF00B1FEE70F4B13901D901E9010A8AA
:102410001093FFF753F8044600B1FEE7FFF718F8F2
:102420004FF47A73B0FBF3F0FEF7B6FB0420FEF72F
:10243000C9FB224621464FF0FF30FEF76DFB26B068
:1024400010BD00BF0210100080B58AB0FEF72EFB51
:10245000FFF7BEFF494B4A4C5A6942F400325A61B9
:102460005A6902F400320092009A5A6942F48022BA
:102470005A615B6903F480230193002282214FF0AB
:1024800090400025019B4FF00108FEF783FC82235A
:102490004FF0904005A90593CDF818800795089551
:1024A0000727FEF7A1FB4FF0804384E88800204611
:1024B0004FF0FF33A560E3602561A561FFF79AFA4D
:1024C00000B1FEE70290049002A92046FFF762FCEB
:1024D000024600B1FEE70A260790089005A92046AB
:1024E0000596CDF81880FFF7D5FA00B1FEE7042273
:1024F00005A92046FFF7CEFA00B1FEE7214D224B99
:10250000A86028616861A861284685E88800EE60B7
:10251000FFF756FA00B1FEE74FF4805305A92846AD
:102520000593FFF749FB00B1FEE70290039004908A
:1025300002A92846FFF72EFC00B1FEE7134B144911
:1025400098604FF4E13283E80600D86018610C22ED
:102550009861D8611862586218465A61FFF760FEA8
:10256000014600B1FEE72046FFF7E8FB04212046C4
:10257000FFF7E4FB2846FFF7E5F8FEE7001002400E
:10258000E0000020A0000020002C014020010020DD
:1025900000440040214B07B59A6942F001029A615C
:1025A0009A6902F001020092009ADA6942F08052C0
:1025B000DA61DB6903F0805301930320019BFEF78E
:1025C00099FA002211466FF00B00FEF7A5FA0022DF
:1025D00011466FF00A00FEF79FFA002211466FF0D5
:1025E0000900FEF799FA002211466FF00400FEF789
:1025F00093FA002211466FF00300FEF78DFA0022D5
:1026000011466FF00100FEF787FA002211464FF0E5
:10261000FF30FEF781FA03B05DF804FB00100240C2
:1026200007B50D4B02689A4212D103F56443192095
:102630009A6942F400629A619B69002203F4006384
:1026400001931146019BFEF767FA1920FEF798FAED
:1026500003B05DF804FB00BF002C014070B50368B7
:10266000B3F1804F86B029D103F504330024DA6931
:1026700042F00102DA61DB69039403F001030125F2
:102680000093022601A94FF09040009B019502960D
:1026900004940595FEF7A8FA082301A908480193B8
:1026A0000296039404940595FEF79EFA1C20224698
:1026B0002146FEF731FA1C20FEF762FA06B070BD23
:1026C000000400487FB502680F4B9A4219D103F508
:1026D000E63301A9DA6942F40032DA61DB6903F416
:1026E00000330093009B0C230193022302930023E9
:1026F0000393032304934FF0904007230593FEF7C1
:1027000073FA07B05DF804FB004400407047FEE731
:10271000FEE7FEE7FEE770477047704708B5FEF733
:10272000D7F9BDE80840FEF75ABA00000148FFF7A4
:102730002CB800BFA00000200148FFF726B800BF5A
:10274000E00000201549D1F8883043F47003C1F847
:102750008830134B1A6842F001021A605868114A17
:1027600002405A601A6822F0847222F480321A60A1
:102770001A6822F480221A605A6822F4FE025A6013
:10278000DA6A22F00F02DA62186B074A02401A6313
:1027900000229A604FF000638B60704700ED00E00C
:1027A000001002400CC07FF8CCFC00FFDFF834D0F2
:1027B000002103E00C4B5B58435004310B480C4B99
:1027C00042189A42F6D30B4A02E0002342F8043B37
:1027D000094B9A42F9D3FFF7B5FF00F011F8FFF764
:1027E00033FEFEE700000120503100080000002009
:1027F000740000207400002094010020FEE7000017
:1028000070B50D4E0D4CA41BA4100025A54209D196
:102810000B4E0C4C00F04CFCA41BA4100025A54250
:1028200005D170BD56F8253098470135EEE756F8CA
:10283000253098470135F2E7483100084831000853
:10284000483100084C31000802440346934200D14D
:10285000704703F8011BF9E70EB400B59CB04FF4C4
:1028600002711DABADF81410029006906FF000419C
:102870000A48049107914FF6FF7153F8042BADF805
:1028800016100068019302A900F066F8029B00226E
:102890001A701CB05DF804EB03B070471000002004
:1028A0002DE9F0478E689E4282460C469146984636
:1028B00035D88A8912F4906F31D0256809696F1A6A
:1028C0006569022305EB450595FBF3F508F1010366
:1028D0003B449D4238BF1D46530531D5294600F083
:1028E00039FB064650B90C23CAF80030A38943F0DF
:1028F0004003A3814FF0FF30BDE8F0873A462169DD
:1029000000F0B4FAA38923F4906343F08003A38119
:10291000266165613E44ED1B2660A560464646453E
:1029200028BF464632464946206800F0AAFAA36806
:102930009B1BA36023681E4426600020BDE8F0872F
:102940002A4600F065FB06460028E1D12169504681
:1029500000F0B2FAC7E700002DE9F04F9DB08046C5
:1029600003938B891C060D4616460FD50B696BB970
:10297000402100F0EFFA2860286128B90C23C8F83C
:1029800000304FF0FF30C5E040236B610023099316
:1029900020238DF8293030238DF82A304FF0010B99
:1029A00037463C4614F8013B002B3CD1B7EB060AF6
:1029B0000BD05346324629464046FFF771FF01309F
:1029C00000F0A380099B534409933B78002B00F04F
:1029D0009C8000234FF0FF320493079305920693E7
:1029E0008DF853301A93052221785048FDF7F8FBF3
:1029F000671C049BD8B9D90644BF20228DF8532008
:102A00001A0744BF2B228DF8532022782A2A16D089
:102A1000079A00210A20274601343B78303B092BD6
:102A200051D9C9B111E0252BC0D02746B9E73F4A9B
:102A3000801A0BFA00F0184304903C46D3E7039A3F
:102A4000111D12680391002A01DB079204E0524233
:102A500043F00203079204933B782E2B0ED17B7830
:102A60002A2B07F1010132D1039B1A1D1B68039227
:102A7000002BB8BF4FF0FF33023705932C4C397849
:102A800003222046FDF7ACFB38B14023001B03FABC
:102A900000F0049B034304930137397825488DF8EF
:102AA000281006227E1CFDF79BFB002835D0224B08
:102AB000FBB9039B073323F0070308330393099BF8
:102AC0004B4409936CE700FB02320121A3E700238A
:102AD000059318460A240F4601313A78303A092AFC
:102AE00003D9002BCAD00590C8E704FB00200123BE
:102AF000F1E703AB00932A46104B04A94046AFF31D
:102B00000080B0F1FF3F8146D9D1AB895B063FF52C
:102B100038AF09981DB0BDE8F08F03AB00932A468B
:102B2000064B04A9404600F081F8EAE7123100089C
:102B3000183100081C31000800000000A12800081E
:102B40002DE9F04791461F468A680B69DDF8208021
:102B50009342B8BF1346C9F8003091F843200646A7
:102B60000C4612B10133C9F800302368990642BF00
:102B7000D9F800300233C9F80030256815F0060591
:102B800007D104F1190AE368D9F800209B1A9D4285
:102B900029DB94F843302268003318BF01239206E2
:102BA0002ED404F1430239463046C047013021D0CB
:102BB0002368E568D9F8002003F00603042B08BF5A
:102BC000AD1AA36822690CBF25EAE575002593427A
:102BD000C4BF9B1AED184FF000091A344D451BD1A4
:102BE0000020BDE8F0870123524639463046C047F1
:102BF000013003D14FF0FF30BDE8F0870135C2E767
:102C0000E1185A1C302081F84300224494F8451002
:102C100082F843100233C4E7012322463946304686
:102C2000C0470130E6D009F10109D7E72DE9F043AB
:102C300017460A7E85B06E2A984606460C460C9BBF
:102C400001F1430E00F0BC801AD8632A2ED00AD8B6
:102C5000002A00F0C880582A00F08A8004F142055A
:102C600084F842202AE0642A01D0692AF6D121683A
:102C70001A6811F0800F23D0111D1960136827E026
:102C8000732A00F0B48008D86F2A2AD0702AE5D1C0
:102C90000A6842F020020A6003E0752A21D0782AEF
:102CA000DCD1782284F845206E4964E01A6801F18D
:102CB0004205111D1960136884F842300123A3E016
:102CC00011F0400F02F104011960D7D0B2F90030C1
:102CD000002B03DA2D225B4284F8432062490A224A
:102CE00017E02068196810F0800F03D0081D1860E5
:102CF0000B6806E010F0400F01F104001860F7D0F7
:102D00000B8859496F2A14BF0A220822002084F830
:102D100043006568A560002DC0F29C80206820F00B
:102D200004002060002B3FD1002D40F095807546B7
:102D3000082A0BD12368DA0708D5236962689A420A
:102D4000DEBF302305F8013C05F1FF35AEEB05038E
:102D50002361CDF800803B4603AA21463046FFF7A9
:102D6000EFFE013055D14FF0FF3005B0BDE8F083E4
:102D700081F845203C492268186812F0800F00F164
:102D800004051D6001D0036802E05506FBD50388E9
:102D9000D00744BF42F0200222601BB9226822F013
:102DA000200222601022B1E77546B3FBF2F002FB6D
:102DB0001033CB5C05F8013D03460028F5D1B7E799
:102DC00008681A68496910F0800F04D0101D186057
:102DD0001368196007E010F0400F02F1040018605A
:102DE0001368F6D01980002323617546B1E71A688D
:102DF000111D19601568626800212846FDF7F0F979
:102E000008B1401B606063682361002384F843308D
:102E10009FE723692A4639463046C0470130A2D091
:102E200023689B0707D5002504F11909E368039A75
:102E30009B1A9D4205DBE068039B9842B8BF184689
:102E400093E701234A4639463046C04701308AD0CD
:102E50000135EBE7002BA7D10B7884F8423004F161
:102E6000420565E7343100082331000810B5431EE0
:102E70000A44914200D110BD11F8014B03F8014FF3
:102E8000F7E7884210B501EB020303D8421E9942CE
:102E90000CD110BD9842F9D28118D21AD34200D178
:102EA00010BD13F8014D01F8014DF7E711F8014B82
:102EB00002F8014FEBE7000038B50546002945D080
:102EC00051F8043C0C1F002BB8BFE41800F0D6F8F2
:102ED0001F4A1368104633B9636014602846BDE882
:102EE000384000F0CCB8A3420CD921686218934254
:102EF00004BF1A685B68636004BF521822600460F4
:102F0000ECE713465A680AB1A242FAD91968581870
:102F1000A0420BD120680144581882421960DDD1CB
:102F2000106852685A6001441960D7E702D90C232F
:102F30002B60D3E7206821188A4204BF11685268C9
:102F4000626004BF091821605C60C7E738BD00BF3C
:102F50009000002070B5CD1C25F0030508350C2D20
:102F600038BF0C25002D064601DBA94203D90C23EE
:102F70003360002070BD00F081F8234A14682146B8
:102F800091B9224C23681BB9304600F067F82060E5
:102F90002946304600F062F8431C26D10C233360EA
:102FA000304600F06CF8E4E70B685B1B1AD40B2B7F
:102FB0000FD90B60CD50CC18304600F060F804F10A
:102FC0000B00231D20F00700C31A1BD05A42E25009
:102FD00070BD8C420DBF63684B686360136018BF9F
:102FE0000C46E9E70C464968CAE7C41C24F0030410
:102FF000A04205D0211A304600F030F80130CDD083
:103000002560D9E770BD00BF90000020940000202B
:10301000F8B5074614460E4621B91146BDE8F840FA
:10302000FFF798BF22B9FFF747FF25462846F8BDAE
:1030300000F026F884420FD921463846FFF78AFF70
:1030400005460028F2D031462246FFF70FFF3146F1
:103050003846FFF731FFE9E73546E7E738B5064C74
:10306000002305460846236000F014F8431C02D1F3
:10307000236803B12B6038BD900100207047704772
:1030800051F8040C0028A0F10400BCBF0B58C01874
:1030900070470000044B1968024609B903491960DA
:1030A000186802441A6070479800002094010020BC
:1030B000F8B500BFF8BC08BC9E467047F8B500BF25
:0830C000F8BC08BC9E467047F5
:1030C80002030405060708090A0B0C0D0E0F101061
:1030D8000102030405060708090A0B0C0D0E0F1060
:1030E8000104080225643A2025642E253032640D37
:1030F8000A000000000000000000010203040607A7
:1031080008090000000001020304232D302B2000D1
:10311800686C4C0065666745464700303132333489
:103128003536373839414243444546003031323329
:1031380034353637383961626364656600000000EB
:04314800C5010008B5
:04314C00A1010008D5
:103150000100000010000000B036000000127A00EC
:10316000140000200000000000000000000000002B
:10317000000000000000000000000000000000004F
:10318000000000000000000000000000000000003F
:10319000000000000000000000000000000000002F
:1031A000000000000000000000000000000000001F
:1031B000000000000000000000000000000000000F
:0431C000000000000B
:04000005080027AD1B
:00000001FF
